{
  "contractName": "Casino",
  "abi": [
    {
      "inputs": [],
      "name": "BETS_LIMIT",
      "outputs": [
        {
          "internalType": "uint256",
          "name": "",
          "type": "uint256"
        }
      ],
      "stateMutability": "view",
      "type": "function"
    },
    {
      "inputs": [],
      "name": "maxAmountOfBets",
      "outputs": [
        {
          "internalType": "uint256",
          "name": "",
          "type": "uint256"
        }
      ],
      "stateMutability": "view",
      "type": "function"
    },
    {
      "inputs": [],
      "name": "minimumBet",
      "outputs": [
        {
          "internalType": "uint256",
          "name": "",
          "type": "uint256"
        }
      ],
      "stateMutability": "view",
      "type": "function"
    },
    {
      "inputs": [],
      "name": "numberOfBets",
      "outputs": [
        {
          "internalType": "uint256",
          "name": "",
          "type": "uint256"
        }
      ],
      "stateMutability": "view",
      "type": "function"
    },
    {
      "inputs": [
        {
          "internalType": "uint256",
          "name": "",
          "type": "uint256"
        }
      ],
      "name": "players",
      "outputs": [
        {
          "internalType": "address",
          "name": "",
          "type": "address"
        }
      ],
      "stateMutability": "view",
      "type": "function"
    },
    {
      "inputs": [],
      "name": "totalBet",
      "outputs": [
        {
          "internalType": "uint256",
          "name": "",
          "type": "uint256"
        }
      ],
      "stateMutability": "view",
      "type": "function"
    },
    {
      "inputs": [],
      "name": "winningNumber",
      "outputs": [
        {
          "internalType": "uint256",
          "name": "",
          "type": "uint256"
        }
      ],
      "stateMutability": "view",
      "type": "function"
    },
    {
      "inputs": [
        {
          "internalType": "uint256",
          "name": "_minimumBet",
          "type": "uint256"
        },
        {
          "internalType": "uint256",
          "name": "_maximumAmountOfBets",
          "type": "uint256"
        }
      ],
      "name": "InititateCasino",
      "outputs": [],
      "stateMutability": "nonpayable",
      "type": "function"
    },
    {
      "inputs": [
        {
          "internalType": "address",
          "name": "player",
          "type": "address"
        }
      ],
      "name": "checkIfPlayerExists",
      "outputs": [
        {
          "internalType": "bool",
          "name": "",
          "type": "bool"
        }
      ],
      "stateMutability": "nonpayable",
      "type": "function"
    },
    {
      "inputs": [
        {
          "internalType": "uint256",
          "name": "numberToBet",
          "type": "uint256"
        }
      ],
      "name": "bet",
      "outputs": [],
      "stateMutability": "payable",
      "type": "function"
    }
  ],
  "bytecode": "0x608060405267016345785d8a0000600155600a60045534801561002157600080fd5b506105aa806100316000396000f3fe6080604052600436106100915760003560e01c806377579f5c1161005957806377579f5c1461012f578063c38a8afd1461014f578063e08a96cd14610165578063f71d96cb1461017b578063fe5e1853146101b357600080fd5b80631f897b6e146100965780632ca8c6d3146100cb5780634664611e146100ef578063573cb427146101055780637365870b1461011a575b600080fd5b3480156100a257600080fd5b506100b66100b13660046104e0565b6101c9565b60405190151581526020015b60405180910390f35b3480156100d757600080fd5b506100e160035481565b6040519081526020016100c2565b3480156100fb57600080fd5b506100e160055481565b34801561011157600080fd5b506100e1606481565b61012d610128366004610510565b6101f7565b005b34801561013b57600080fd5b5061012d61014a366004610529565b6103ca565b34801561015b57600080fd5b506100e160015481565b34801561017157600080fd5b506100e160045481565b34801561018757600080fd5b5061019b610196366004610510565b6104b6565b6040516001600160a01b0390911681526020016100c2565b3480156101bf57600080fd5b506100e160025481565b6001600160a01b038116600090815260086020526040812054156101ef57506001919050565b506000919050565b6004546003541061024f5760405162461bcd60e51b815260206004820152601f60248201527f4d6178696d756d206e756d626572206f66206265747320726561636865642e0060448201526064015b60405180910390fd5b610258336101c9565b156102945760405162461bcd60e51b815260206004820152600c60248201526b2ab9b2b91032bc34b9ba399760a11b6044820152606401610246565b600181101580156102a65750600a8111155b6103005760405162461bcd60e51b815260206004820152602560248201527f6e756d62657220746f20626574206d757374206265206265747765656e203120604482015264169018981760d91b6064820152608401610246565b6001543410156103605760405162461bcd60e51b815260206004820152602560248201527f416d6f756e742063616e6e6f74206265206c657373207468616e20302e31206560448201526403a3432b9160dd1b6064820152608401610246565b33600081815260086020908152604080832085905584835260078252822080546001810182559083529082200180546001600160a01b03191690921790915560038054916103ad8361054b565b9091555050600280549060006103c28361054b565b919050555050565b600082116104265760405162461bcd60e51b815260206004820152602360248201527f4d696e696d756d20626574206d7573742062652067726561746572207468616e60448201526210181760e91b6064820152608401610246565b600081118015610437575060648111155b6104995760405162461bcd60e51b815260206004820152602d60248201527f4d6178696d756d20616d6f756e74206f6420626574206d75737420626520677260448201526c32b0ba32b9103a3430b710181760991b6064820152608401610246565b600080546001600160a01b03191633179055600191909155600455565b600681815481106104c657600080fd5b6000918252602090912001546001600160a01b0316905081565b6000602082840312156104f257600080fd5b81356001600160a01b038116811461050957600080fd5b9392505050565b60006020828403121561052257600080fd5b5035919050565b6000806040838503121561053c57600080fd5b50508035926020909101359150565b600060001982141561056d57634e487b7160e01b600052601160045260246000fd5b506001019056fea2646970667358221220ba21d616c0c09b40956c789b6ba00a69ce2aef730d51712639c2dbf042c332dc64736f6c634300080b0033",
  "immutableReferences": {},
  "source": "// SPDX-License-Identifier: MIT\r\npragma solidity >=0.4.22 <0.9.0;\r\n\r\ncontract Casino {\r\n    address owner;\r\n\r\n    //Minimum bet a user has to make to partipate in the game\r\n    uint public minimumBet = 0.1 ether;\r\n\r\n    //Total amount of ether bet for this current game\r\n    uint public totalBet;\r\n\r\n    //total bets made by users\r\n    uint public numberOfBets;\r\n\r\n    //Maximum amount of bets that can be made for each game\r\n    uint public maxAmountOfBets = 10;\r\n\r\n    //Betting limit to avoid excess gas consumption\r\n    uint public constant BETS_LIMIT = 100;\r\n\r\n    //Winning number\r\n    uint public winningNumber;\r\n\r\n    address[] public players;\r\n\r\n\r\n    //Each number has an array of players betting on it. Associate each number with a bunch of players.\r\n    mapping(uint => address[]) numberBetPlayers;\r\n\r\n    //The number that each player has bet on\r\n    mapping(address => uint) playerBetsNumber;\r\n\r\n\r\n    modifier onEndGame(){\r\n        require(numberOfBets >= maxAmountOfBets, \"Betting has not ended.\" );\r\n        _;\r\n    }\r\n\r\n    function InititateCasino(uint _minimumBet, uint _maximumAmountOfBets) public{\r\n        \r\n\r\n        require(_minimumBet > 0, \"Minimum bet must be greater than 0.\");\r\n        require(_maximumAmountOfBets > 0 && _maximumAmountOfBets <= BETS_LIMIT, \"Maximum amount od bet must be greater than 0.\");\r\n        owner = msg.sender;\r\n        minimumBet = _minimumBet;\r\n        maxAmountOfBets = _maximumAmountOfBets;\r\n\r\n\r\n    }\r\n\r\n\r\n    // Checks if a player is in the current game\r\n    function checkIfPlayerExists(address player) public returns (bool){\r\n        if(playerBetsNumber[player] > 0) {\r\n            return true;\r\n        }\r\n\r\n        return false;\r\n    }\r\n\r\n    function bet(uint numberToBet) public payable{\r\n        require(numberOfBets < maxAmountOfBets, \"Maximum number of bets reached.\");\r\n\r\n        require(!checkIfPlayerExists(msg.sender), \"User exists.\");\r\n\r\n\r\n        require(numberToBet >= 1 && numberToBet <=10, \"number to bet must be between 1 - 10.\");\r\n\r\n        require(msg.value >= minimumBet, \"Amount cannot be less than 0.1 ether \");\r\n\r\n\r\n        playerBetsNumber[msg.sender] = numberToBet;\r\n\r\n        //Add the user address to the list of punters for a particular number;\r\n        numberBetPlayers[numberToBet].push(msg.sender);\r\n\r\n        numberOfBets ++;\r\n        totalBet ++;\r\n\r\n        if(numberOfBets >= maxAmountOfBets){\r\n            //Generate number winner\r\n        }\r\n    }\r\n\r\n\r\n}\r\n\r\n",
  "sourcePath": "D:\\HP ENVY 15\\MY PROJECT\\WEB\\SOLIDITY\\casino-contract\\contracts\\Casino.sol",
  "compiler": {
    "name": "solc",
    "version": "0.8.11+commit.d7f03943.Emscripten.clang"
  },
  "schemaVersion": "3.4.4",
  "updatedAt": "2022-02-25T21:30:07.812Z",
  "devdoc": {
    "kind": "dev",
    "methods": {},
    "version": 1
  },
  "userdoc": {
    "kind": "user",
    "methods": {},
    "version": 1
  }
}