{
  "contractName": "Casino",
  "abi": [
    {
      "inputs": [],
      "stateMutability": "nonpayable",
      "type": "constructor"
    },
    {
      "inputs": [],
      "name": "BETS_LIMIT",
      "outputs": [
        {
          "internalType": "uint256",
          "name": "",
          "type": "uint256"
        }
      ],
      "stateMutability": "view",
      "type": "function"
    },
    {
      "inputs": [],
      "name": "maxAmountOfBets",
      "outputs": [
        {
          "internalType": "uint256",
          "name": "",
          "type": "uint256"
        }
      ],
      "stateMutability": "view",
      "type": "function"
    },
    {
      "inputs": [],
      "name": "minimumBet",
      "outputs": [
        {
          "internalType": "uint256",
          "name": "",
          "type": "uint256"
        }
      ],
      "stateMutability": "view",
      "type": "function"
    },
    {
      "inputs": [],
      "name": "numberOfBets",
      "outputs": [
        {
          "internalType": "uint256",
          "name": "",
          "type": "uint256"
        }
      ],
      "stateMutability": "view",
      "type": "function"
    },
    {
      "inputs": [
        {
          "internalType": "uint256",
          "name": "",
          "type": "uint256"
        }
      ],
      "name": "players",
      "outputs": [
        {
          "internalType": "address",
          "name": "addr",
          "type": "address"
        },
        {
          "internalType": "uint256",
          "name": "number",
          "type": "uint256"
        }
      ],
      "stateMutability": "view",
      "type": "function"
    },
    {
      "inputs": [],
      "name": "totalBet",
      "outputs": [
        {
          "internalType": "uint256",
          "name": "",
          "type": "uint256"
        }
      ],
      "stateMutability": "view",
      "type": "function"
    },
    {
      "inputs": [],
      "name": "winningNumber",
      "outputs": [
        {
          "internalType": "uint256",
          "name": "",
          "type": "uint256"
        }
      ],
      "stateMutability": "view",
      "type": "function"
    },
    {
      "inputs": [
        {
          "internalType": "address",
          "name": "player",
          "type": "address"
        }
      ],
      "name": "checkIfPlayerExists",
      "outputs": [
        {
          "internalType": "bool",
          "name": "",
          "type": "bool"
        }
      ],
      "stateMutability": "view",
      "type": "function"
    },
    {
      "inputs": [
        {
          "internalType": "uint256",
          "name": "numberToBet",
          "type": "uint256"
        }
      ],
      "name": "bet",
      "outputs": [],
      "stateMutability": "payable",
      "type": "function"
    }
  ],
  "bytecode": "0x608060405267016345785d8a0000600155600a60045534801561002157600080fd5b5061002e6001600a610033565b610124565b600082116100945760405162461bcd60e51b815260206004820152602360248201527f4d696e696d756d20626574206d7573742062652067726561746572207468616e60448201526210181760e91b60648201526084015b60405180910390fd5b6000811180156100a5575060648111155b6101075760405162461bcd60e51b815260206004820152602d60248201527f4d6178696d756d20616d6f756e74206f6420626574206d75737420626520677260448201526c32b0ba32b9103a3430b710181760991b606482015260840161008b565b600080546001600160a01b03191633179055600191909155600455565b610739806101336000396000f3fe6080604052600436106100865760003560e01c80637365870b116100595780637365870b1461010f578063c38a8afd14610124578063e08a96cd1461013a578063f71d96cb14610150578063fe5e18531461018f57600080fd5b80631f897b6e1461008b5780632ca8c6d3146100c05780634664611e146100e4578063573cb427146100fa575b600080fd5b34801561009757600080fd5b506100ab6100a636600461061d565b6101a5565b60405190151581526020015b60405180910390f35b3480156100cc57600080fd5b506100d660035481565b6040519081526020016100b7565b3480156100f057600080fd5b506100d660055481565b34801561010657600080fd5b506100d6606481565b61012261011d36600461064d565b610213565b005b34801561013057600080fd5b506100d660015481565b34801561014657600080fd5b506100d660045481565b34801561015c57600080fd5b5061017061016b36600461064d565b610450565b604080516001600160a01b0390931683526020830191909152016100b7565b34801561019b57600080fd5b506100d660025481565b600080805b60075481101561020c57836001600160a01b0316600782815481106101d1576101d1610666565b60009182526020909120600290910201546001600160a01b031614156101fa576001915061020c565b8061020481610692565b9150506101aa565b5092915050565b6004546003541061026b5760405162461bcd60e51b815260206004820152601f60248201527f4d6178696d756d206e756d626572206f66206265747320726561636865642e0060448201526064015b60405180910390fd5b610274336101a5565b156102b05760405162461bcd60e51b815260206004820152600c60248201526b2ab9b2b91032bc34b9ba399760a11b6044820152606401610262565b600181101580156102c25750600a8111155b61031c5760405162461bcd60e51b815260206004820152602560248201527f6e756d62657220746f20626574206d757374206265206265747765656e203120604482015264169018981760d91b6064820152608401610262565b60015434101561037c5760405162461bcd60e51b815260206004820152602560248201527f416d6f756e742063616e6e6f74206265206c657373207468616e20302e31206560448201526403a3432b9160dd1b6064820152608401610262565b604080518082019091523381526020810182815260078054600181018255600091825283517fa66cc928b5edb82af9bd49922954155ab7b0942694bea4ce44661d9a8736c688600290920291820180546001600160a01b0319166001600160a01b0390921691909117905591517fa66cc928b5edb82af9bd49922954155ab7b0942694bea4ce44661d9a8736c68990920191909155600380549161041f83610692565b90915550506002805490600061043483610692565b91905055506004546003541061044c5761044c610488565b5050565b6007818154811061046057600080fd5b6000918252602090912060029091020180546001909101546001600160a01b03909116915082565b600044426040516020016104a6929190918252602082015260400190565b60408051601f19818403018152919052805160209091012090506104cb600a826106c3565b6104d69060016106d7565b6005556104e16104e4565b50565b60045460035410156105315760405162461bcd60e51b81526020600482015260166024820152752132ba3a34b733903430b9903737ba1032b73232b21760511b6044820152606401610262565b600654600254600091610543916106ef565b905060005b6006548110156105bd576006818154811061056557610565610666565b600091825260208220600290910201546040516001600160a01b039091169184156108fc02918591818181858888f193505050501580156105aa573d6000803e3d6000fd5b50806105b581610692565b915050610548565b506105ca600660006105d7565b5060006002819055600355565b50805460008255600202906000526020600020908101906104e191905b808211156106195780546001600160a01b0319168155600060018201556002016105f4565b5090565b60006020828403121561062f57600080fd5b81356001600160a01b038116811461064657600080fd5b9392505050565b60006020828403121561065f57600080fd5b5035919050565b634e487b7160e01b600052603260045260246000fd5b634e487b7160e01b600052601160045260246000fd5b60006000198214156106a6576106a661067c565b5060010190565b634e487b7160e01b600052601260045260246000fd5b6000826106d2576106d26106ad565b500690565b600082198211156106ea576106ea61067c565b500190565b6000826106fe576106fe6106ad565b50049056fea2646970667358221220f0523e799202c907b1f713989906006ffa558515dd566cc774b7f20aed17febc64736f6c634300080b0033",
  "immutableReferences": {},
  "source": "// SPDX-License-Identifier: MIT\r\npragma solidity >=0.4.22 <0.9.0;\r\n\r\ncontract Casino {\r\n    address payable owner;\r\n\r\n    //Minimum bet a user has to make to partipate in the game\r\n    uint public minimumBet = 0.1 ether;\r\n\r\n    //Total amount of ether bet for this current game\r\n    uint public totalBet;\r\n\r\n    //total number bets made by users\r\n    uint public numberOfBets;\r\n\r\n    //Maximum amount of bets that can be made for each game\r\n    uint public maxAmountOfBets = 10;\r\n\r\n    //Betting limit to avoid excess gas consumption\r\n    uint public constant BETS_LIMIT = 100;\r\n\r\n    //Winning number\r\n    uint public winningNumber;\r\n\r\n    Player[] private winners;\r\n\r\n    struct Player {\r\n        address addr;//User Address\r\n        uint number;//The number that was voted for;\r\n    }\r\n\r\n    Player[] public  players;\r\n\r\n\r\n\r\n    modifier onEndGame(){\r\n        require(numberOfBets >= maxAmountOfBets, \"Betting has not ended.\" );\r\n        _;\r\n    }\r\n\r\n\r\n    constructor()  {\r\n        InititateCasino(1,10);\r\n    }\r\n    function InititateCasino(uint _minimumBet, uint _maximumAmountOfBets) private{\r\n        \r\n\r\n        require(_minimumBet > 0, \"Minimum bet must be greater than 0.\");\r\n        require(_maximumAmountOfBets > 0 && _maximumAmountOfBets <= BETS_LIMIT, \"Maximum amount od bet must be greater than 0.\");\r\n        owner = payable(msg.sender);\r\n        minimumBet = _minimumBet;\r\n        maxAmountOfBets = _maximumAmountOfBets;\r\n\r\n\r\n    }\r\n\r\n\r\n    // Checks if a player is in the current game\r\n    function checkIfPlayerExists(address player) public view returns (bool){\r\n        bool answer = false;\r\n        for(uint i = 0; i < players.length; i++){\r\n            if(players[i].addr == player){\r\n                answer = true;\r\n                break;\r\n            }\r\n\r\n\r\n        }\r\n        return answer;\r\n    }\r\n\r\n    function bet(uint numberToBet) public payable{\r\n        require(numberOfBets < maxAmountOfBets, \"Maximum number of bets reached.\");\r\n\r\n        require(!checkIfPlayerExists(msg.sender), \"User exists.\");\r\n\r\n\r\n        require(numberToBet >= 1 && numberToBet <=10, \"number to bet must be between 1 - 10.\");\r\n\r\n        require(msg.value >= minimumBet, \"Amount cannot be less than 0.1 ether \");\r\n\r\n\r\n        Player memory thePlayer =Player({\r\n            addr:msg.sender,\r\n            number:numberToBet\r\n        });\r\n\r\n        players.push(thePlayer);\r\n\r\n       \r\n\r\n        numberOfBets ++;\r\n        totalBet ++;\r\n\r\n        if(numberOfBets >= maxAmountOfBets){\r\n           GenerateRandomNumber();\r\n        }\r\n    }\r\n\r\n    function GenerateRandomNumber () private{\r\n        uint random_number = uint(keccak256(abi.encodePacked(block.difficulty, block.timestamp)));\r\n\r\n        winningNumber = random_number % 10 + 1;\r\n\r\n        distributePrizes();\r\n    }\r\n\r\n\r\n    function GetWinners() private returns(Player[] storage){\r\n       \r\n\r\n        for(uint i =0; i < players.length;  i++){\r\n            if(players[i].number == winningNumber){\r\n                winners.push(players[i]);\r\n            }\r\n        }\r\n\r\n        return winners;\r\n    }\r\n\r\n// Send Ether to winners and reset the game.\r\nfunction distributePrizes() private onEndGame {\r\n\r\n\r\n\r\n    uint winnerEtherAmount = totalBet /winners.length;\r\n\r\n\r\n    //Loop through the winners and send ether to them\r\n\r\n    for(uint i= 0; i<winners.length; i++){\r\n        \r\n        payable(winners[i].addr).transfer(winnerEtherAmount);\r\n    }\r\n\r\n\r\n    \r\n\r\n    delete winners;\r\n\r\n    totalBet =0;\r\n    numberOfBets =0;\r\n}\r\n    \r\n\r\n\r\n}\r\n\r\n",
  "sourcePath": "D:\\HP ENVY 15\\MY PROJECT\\WEB\\SOLIDITY\\casino-contract\\contracts\\Casino.sol",
  "compiler": {
    "name": "solc",
    "version": "0.8.11+commit.d7f03943.Emscripten.clang"
  },
  "schemaVersion": "3.4.4",
  "updatedAt": "2022-02-27T13:50:14.940Z",
  "devdoc": {
    "kind": "dev",
    "methods": {},
    "version": 1
  },
  "userdoc": {
    "kind": "user",
    "methods": {},
    "version": 1
  }
}