{
  "contractName": "Casino",
  "abi": [
    {
      "inputs": [],
      "stateMutability": "nonpayable",
      "type": "constructor"
    },
    {
      "anonymous": false,
      "inputs": [
        {
          "indexed": false,
          "internalType": "address",
          "name": "_winner",
          "type": "address"
        },
        {
          "indexed": false,
          "internalType": "uint256",
          "name": "_amount",
          "type": "uint256"
        }
      ],
      "name": "winner",
      "type": "event"
    },
    {
      "inputs": [],
      "name": "BETS_LIMIT",
      "outputs": [
        {
          "internalType": "uint256",
          "name": "",
          "type": "uint256"
        }
      ],
      "stateMutability": "view",
      "type": "function",
      "constant": true
    },
    {
      "inputs": [],
      "name": "maxAmountOfBets",
      "outputs": [
        {
          "internalType": "uint256",
          "name": "",
          "type": "uint256"
        }
      ],
      "stateMutability": "view",
      "type": "function",
      "constant": true
    },
    {
      "inputs": [],
      "name": "minimumBet",
      "outputs": [
        {
          "internalType": "uint256",
          "name": "",
          "type": "uint256"
        }
      ],
      "stateMutability": "view",
      "type": "function",
      "constant": true
    },
    {
      "inputs": [],
      "name": "numberOfBets",
      "outputs": [
        {
          "internalType": "uint256",
          "name": "",
          "type": "uint256"
        }
      ],
      "stateMutability": "view",
      "type": "function",
      "constant": true
    },
    {
      "inputs": [
        {
          "internalType": "uint256",
          "name": "",
          "type": "uint256"
        }
      ],
      "name": "players",
      "outputs": [
        {
          "internalType": "address",
          "name": "addr",
          "type": "address"
        },
        {
          "internalType": "uint256",
          "name": "number",
          "type": "uint256"
        }
      ],
      "stateMutability": "view",
      "type": "function",
      "constant": true
    },
    {
      "inputs": [],
      "name": "totalBet",
      "outputs": [
        {
          "internalType": "uint256",
          "name": "",
          "type": "uint256"
        }
      ],
      "stateMutability": "view",
      "type": "function",
      "constant": true
    },
    {
      "inputs": [
        {
          "internalType": "uint256",
          "name": "",
          "type": "uint256"
        }
      ],
      "name": "winners",
      "outputs": [
        {
          "internalType": "address",
          "name": "addr",
          "type": "address"
        },
        {
          "internalType": "uint256",
          "name": "number",
          "type": "uint256"
        }
      ],
      "stateMutability": "view",
      "type": "function",
      "constant": true
    },
    {
      "inputs": [],
      "name": "winningNumber",
      "outputs": [
        {
          "internalType": "uint256",
          "name": "",
          "type": "uint256"
        }
      ],
      "stateMutability": "view",
      "type": "function",
      "constant": true
    },
    {
      "inputs": [
        {
          "internalType": "uint256",
          "name": "numberToBet",
          "type": "uint256"
        }
      ],
      "name": "bet",
      "outputs": [],
      "stateMutability": "payable",
      "type": "function",
      "payable": true
    }
  ],
  "bytecode": "0x608060405267016345785d8a0000600155600a60045534801561002157600080fd5b5061002e6001600a610033565b610124565b600082116100945760405162461bcd60e51b815260206004820152602360248201527f4d696e696d756d20626574206d7573742062652067726561746572207468616e60448201526210181760e91b60648201526084015b60405180910390fd5b6000811180156100a5575060648111155b6101075760405162461bcd60e51b815260206004820152602d60248201527f4d6178696d756d20616d6f756e74206f6420626574206d75737420626520677260448201526c32b0ba32b9103a3430b710181760991b606482015260840161008b565b600080546001600160a01b03191633179055600191909155600455565b610838806101336000396000f3fe6080604052600436106100865760003560e01c8063a2fb117511610059578063a2fb1175146100f4578063c38a8afd14610133578063e08a96cd14610149578063f71d96cb1461015f578063fe5e18531461017f57600080fd5b80632ca8c6d31461008b5780634664611e146100b4578063573cb427146100ca5780637365870b146100df575b600080fd5b34801561009757600080fd5b506100a160035481565b6040519081526020015b60405180910390f35b3480156100c057600080fd5b506100a160055481565b3480156100d657600080fd5b506100a1606481565b6100f26100ed36600461074c565b610195565b005b34801561010057600080fd5b5061011461010f36600461074c565b6103d2565b604080516001600160a01b0390931683526020830191909152016100ab565b34801561013f57600080fd5b506100a160015481565b34801561015557600080fd5b506100a160045481565b34801561016b57600080fd5b5061011461017a36600461074c565b61040a565b34801561018b57600080fd5b506100a160025481565b600454600354106101ed5760405162461bcd60e51b815260206004820152601f60248201527f4d6178696d756d206e756d626572206f66206265747320726561636865642e0060448201526064015b60405180910390fd5b6101f63361041a565b156102325760405162461bcd60e51b815260206004820152600c60248201526b2ab9b2b91032bc34b9ba399760a11b60448201526064016101e4565b600181101580156102445750600a8111155b61029e5760405162461bcd60e51b815260206004820152602560248201527f6e756d62657220746f20626574206d757374206265206265747765656e203120604482015264169018981760d91b60648201526084016101e4565b6001543410156102fe5760405162461bcd60e51b815260206004820152602560248201527f416d6f756e742063616e6e6f74206265206c657373207468616e20302e31206560448201526403a3432b9160dd1b60648201526084016101e4565b604080518082019091523381526020810182815260078054600181018255600091825283517fa66cc928b5edb82af9bd49922954155ab7b0942694bea4ce44661d9a8736c688600290920291820180546001600160a01b0319166001600160a01b0390921691909117905591517fa66cc928b5edb82af9bd49922954155ab7b0942694bea4ce44661d9a8736c6899092019190915560038054916103a18361077b565b9091555050600280549060006103b68361077b565b9190505550600454600354106103ce576103ce610488565b5050565b600681815481106103e257600080fd5b6000918252602090912060029091020180546001909101546001600160a01b03909116915082565b600781815481106103e257600080fd5b600080805b60075481101561048157836001600160a01b03166007828154811061044657610446610796565b60009182526020909120600290910201546001600160a01b0316141561046f5760019150610481565b806104798161077b565b91505061041f565b5092915050565b600044426040516020016104a6929190918252602082015260400190565b6040516020818303038152906040528051906020012060001c9050600454816104cf91906107c2565b6104da9060016107d6565b6005556104e56104e8565b50565b60045460035410156105355760405162461bcd60e51b81526020600482015260166024820152752132ba3a34b733903430b9903737ba1032b73232b21760511b60448201526064016101e4565b61053d610655565b60065460025460009161054f916107ee565b905060005b60065481101561062f576006818154811061057157610571610796565b600091825260208220600290910201546040516001600160a01b039091169184156108fc02918591818181858888f193505050501580156105b6573d6000803e3d6000fd5b507fe9390f9b7a2aab3a9a43cbeb84b542fcc6b3611505affcd3b13c14b73a5cd106600682815481106105eb576105eb610796565b600091825260209182902060029091020154604080516001600160a01b0390921682529181018590520160405180910390a1806106278161077b565b915050610554565b5061063c60066000610706565b61064860076000610706565b5060006002819055600355565b60005b6007548110156104e5576005546007828154811061067857610678610796565b90600052602060002090600202016001015414156106f4576006600782815481106106a5576106a5610796565b6000918252602080832084546001818101875595855291909320600292830290930180549190920290920180546001600160a01b0319166001600160a01b039093169290921782558201549101555b806106fe8161077b565b915050610658565b50805460008255600202906000526020600020908101906104e591905b808211156107485780546001600160a01b031916815560006001820155600201610723565b5090565b60006020828403121561075e57600080fd5b5035919050565b634e487b7160e01b600052601160045260246000fd5b600060001982141561078f5761078f610765565b5060010190565b634e487b7160e01b600052603260045260246000fd5b634e487b7160e01b600052601260045260246000fd5b6000826107d1576107d16107ac565b500690565b600082198211156107e9576107e9610765565b500190565b6000826107fd576107fd6107ac565b50049056fea26469706673582212202695a1ab91aadd6ad5e27af700fec2e4b475004f7dac1672b7e4a28e6395555464736f6c634300080b0033",
  "immutableReferences": {},
  "source": "// SPDX-License-Identifier: MIT\r\npragma solidity >=0.4.22 <0.9.0;\r\n\r\ncontract Casino {\r\n    address payable owner;\r\n\r\n    //Minimum bet a user has to make to partipate in the game\r\n    uint public minimumBet = 0.1 ether;\r\n\r\n    //Total amount of ether bet for this current game\r\n    uint public totalBet;\r\n\r\n    //total number bets made by users\r\n    uint public numberOfBets;\r\n\r\n    //Maximum amount of bets that can be made for each game\r\n    uint public maxAmountOfBets = 10;\r\n\r\n    //Betting limit to avoid excess gas consumption\r\n    uint public constant BETS_LIMIT = 100;\r\n\r\n    //Winning number\r\n    uint public winningNumber;\r\n\r\n    Player[] public winners;\r\n\r\n    struct Player {\r\n        address addr;//User Address\r\n        uint number;//The number that was voted for;\r\n    }\r\n\r\n    Player[] public  players;\r\n\r\n\r\n\r\n    modifier onEndGame(){\r\n        require(numberOfBets >= maxAmountOfBets, \"Betting has not ended.\" );\r\n        _;\r\n    }\r\n\r\n    event winner(address _winner, uint _amount);\r\n\r\n    constructor() public {\r\n        InititateCasino(1,10);\r\n    }\r\n    function InititateCasino(uint _minimumBet, uint _maximumAmountOfBets) private{\r\n        \r\n\r\n        require(_minimumBet > 0, \"Minimum bet must be greater than 0.\");\r\n        require(_maximumAmountOfBets > 0 && _maximumAmountOfBets <= BETS_LIMIT, \"Maximum amount od bet must be greater than 0.\");\r\n        owner = payable(msg.sender);\r\n        minimumBet = _minimumBet;\r\n        maxAmountOfBets = _maximumAmountOfBets;\r\n\r\n\r\n    }\r\n\r\n\r\n    // Checks if a player is in the current game\r\n    function checkIfPlayerExists(address player) private returns (bool){\r\n        bool answer = false;\r\n        for(uint i = 0; i < players.length; i++){\r\n            if(players[i].addr == player){\r\n                answer = true;\r\n                break;\r\n            }\r\n\r\n\r\n        }\r\n        return answer;\r\n    }\r\n\r\n    function bet(uint numberToBet) public payable{\r\n        require(numberOfBets < maxAmountOfBets, \"Maximum number of bets reached.\");\r\n\r\n        require(!checkIfPlayerExists(msg.sender), \"User exists.\");\r\n\r\n\r\n        require(numberToBet >= 1 && numberToBet <=10, \"number to bet must be between 1 - 10.\");\r\n\r\n        require(msg.value >= minimumBet, \"Amount cannot be less than 0.1 ether \");\r\n\r\n\r\n        Player memory thePlayer =Player({\r\n            addr:msg.sender,\r\n            number:numberToBet\r\n        });\r\n\r\n        players.push(thePlayer);\r\n\r\n       \r\n\r\n        numberOfBets ++;\r\n        totalBet ++;\r\n\r\n        if(numberOfBets >= maxAmountOfBets){\r\n           GenerateRandomNumber();\r\n        }\r\n    }\r\n\r\n    function GenerateRandomNumber () private{\r\n        uint random_number = uint(keccak256(abi.encodePacked(block.difficulty, block.timestamp)));\r\n\r\n        winningNumber = random_number % maxAmountOfBets + 1;\r\n\r\n        distributePrizes();\r\n    }\r\n\r\n\r\n    function GetWinners() private {\r\n       \r\n\r\n        for(uint i =0; i < players.length;  i++){\r\n            if(players[i].number == winningNumber){\r\n                winners.push(players[i]);\r\n            }\r\n        }\r\n\r\n    }\r\n\r\n// Send Ether to winners and reset the game.\r\nfunction distributePrizes() private onEndGame {\r\n\r\n\r\n    GetWinners();\r\n\r\n    //Check that there are winners before looping.\r\n\r\n    \r\n    uint winnerEtherAmount = totalBet / winners.length;\r\n    //Loop through the winners and send ether to them\r\n    for(uint i= 0; i < winners.length; i++){\r\n        \r\n        payable(winners[i].addr).transfer(winnerEtherAmount);\r\n\r\n        emit winner(winners[i].addr, winnerEtherAmount);\r\n    }\r\n    \r\n\r\n    delete winners;\r\n\r\n    delete players;\r\n\r\n    totalBet =0;\r\n    numberOfBets =0;\r\n}\r\n    \r\n\r\n\r\n}\r\n\r\n",
  "sourcePath": "D:\\HP ENVY 15\\MY PROJECT\\WEB\\SOLIDITY\\casino-contract\\contracts\\Casino.sol",
  "compiler": {
    "name": "solc",
    "version": "0.8.11+commit.d7f03943.Emscripten.clang"
  },
  "schemaVersion": "3.4.4",
  "updatedAt": "2022-03-07T23:53:27.350Z",
  "networkType": "ethereum",
  "devdoc": {
    "kind": "dev",
    "methods": {},
    "version": 1
  },
  "userdoc": {
    "kind": "user",
    "methods": {},
    "version": 1
  }
}