{
  "contractName": "Casino",
  "abi": [
    {
      "inputs": [],
      "name": "BETS_LIMIT",
      "outputs": [
        {
          "internalType": "uint256",
          "name": "",
          "type": "uint256"
        }
      ],
      "stateMutability": "view",
      "type": "function",
      "constant": true
    },
    {
      "inputs": [],
      "name": "maxAmountOfBets",
      "outputs": [
        {
          "internalType": "uint256",
          "name": "",
          "type": "uint256"
        }
      ],
      "stateMutability": "view",
      "type": "function",
      "constant": true
    },
    {
      "inputs": [],
      "name": "minimumBet",
      "outputs": [
        {
          "internalType": "uint256",
          "name": "",
          "type": "uint256"
        }
      ],
      "stateMutability": "view",
      "type": "function",
      "constant": true
    },
    {
      "inputs": [
        {
          "internalType": "uint256",
          "name": "",
          "type": "uint256"
        },
        {
          "internalType": "uint256",
          "name": "",
          "type": "uint256"
        }
      ],
      "name": "numberBetPlayers",
      "outputs": [
        {
          "internalType": "address",
          "name": "",
          "type": "address"
        }
      ],
      "stateMutability": "view",
      "type": "function",
      "constant": true
    },
    {
      "inputs": [],
      "name": "numberOfBets",
      "outputs": [
        {
          "internalType": "uint256",
          "name": "",
          "type": "uint256"
        }
      ],
      "stateMutability": "view",
      "type": "function",
      "constant": true
    },
    {
      "inputs": [
        {
          "internalType": "address",
          "name": "",
          "type": "address"
        }
      ],
      "name": "playerBetsNumber",
      "outputs": [
        {
          "internalType": "uint256",
          "name": "",
          "type": "uint256"
        }
      ],
      "stateMutability": "view",
      "type": "function",
      "constant": true
    },
    {
      "inputs": [
        {
          "internalType": "uint256",
          "name": "",
          "type": "uint256"
        }
      ],
      "name": "players",
      "outputs": [
        {
          "internalType": "address",
          "name": "",
          "type": "address"
        }
      ],
      "stateMutability": "view",
      "type": "function",
      "constant": true
    },
    {
      "inputs": [],
      "name": "totalBet",
      "outputs": [
        {
          "internalType": "uint256",
          "name": "",
          "type": "uint256"
        }
      ],
      "stateMutability": "view",
      "type": "function",
      "constant": true
    },
    {
      "inputs": [],
      "name": "winningNumber",
      "outputs": [
        {
          "internalType": "uint256",
          "name": "",
          "type": "uint256"
        }
      ],
      "stateMutability": "view",
      "type": "function",
      "constant": true
    },
    {
      "inputs": [
        {
          "internalType": "uint256",
          "name": "_minimumBet",
          "type": "uint256"
        },
        {
          "internalType": "uint256",
          "name": "_maximumAmountOfBets",
          "type": "uint256"
        }
      ],
      "name": "InititateCasino",
      "outputs": [],
      "stateMutability": "nonpayable",
      "type": "function"
    },
    {
      "inputs": [
        {
          "internalType": "address",
          "name": "player",
          "type": "address"
        }
      ],
      "name": "checkIfPlayerExists",
      "outputs": [
        {
          "internalType": "bool",
          "name": "",
          "type": "bool"
        }
      ],
      "stateMutability": "view",
      "type": "function",
      "constant": true
    },
    {
      "inputs": [
        {
          "internalType": "uint256",
          "name": "numberToBet",
          "type": "uint256"
        }
      ],
      "name": "bet",
      "outputs": [],
      "stateMutability": "payable",
      "type": "function",
      "payable": true
    }
  ],
  "bytecode": "0x608060405267016345785d8a0000600155600a60045534801561002157600080fd5b50610884806100316000396000f3fe6080604052600436106100a75760003560e01c806377579f5c1161006457806377579f5c14610172578063c38a8afd14610192578063cc5371bf146101a8578063e08a96cd146101e0578063f71d96cb146101f6578063fe5e18531461021657600080fd5b80631f897b6e146100ac5780632ca8c6d3146100e157806332eacbde146101055780634664611e14610132578063573cb427146101485780637365870b1461015d575b600080fd5b3480156100b857600080fd5b506100cc6100c73660046106f6565b61022c565b60405190151581526020015b60405180910390f35b3480156100ed57600080fd5b506100f760035481565b6040519081526020016100d8565b34801561011157600080fd5b506100f76101203660046106f6565b60086020526000908152604090205481565b34801561013e57600080fd5b506100f760055481565b34801561015457600080fd5b506100f7606481565b61017061016b366004610726565b61025a565b005b34801561017e57600080fd5b5061017061018d36600461073f565b610442565b34801561019e57600080fd5b506100f760015481565b3480156101b457600080fd5b506101c86101c336600461073f565b61052e565b6040516001600160a01b0390911681526020016100d8565b3480156101ec57600080fd5b506100f760045481565b34801561020257600080fd5b506101c8610211366004610726565b610566565b34801561022257600080fd5b506100f760025481565b6001600160a01b0381166000908152600860205260408120541561025257506001919050565b506000919050565b600454600354106102b25760405162461bcd60e51b815260206004820152601f60248201527f4d6178696d756d206e756d626572206f66206265747320726561636865642e0060448201526064015b60405180910390fd5b6102bb3361022c565b156102f75760405162461bcd60e51b815260206004820152600c60248201526b2ab9b2b91032bc34b9ba399760a11b60448201526064016102a9565b600181101580156103095750600a8111155b6103635760405162461bcd60e51b815260206004820152602560248201527f6e756d62657220746f20626574206d757374206265206265747765656e203120604482015264169018981760d91b60648201526084016102a9565b6001543410156103c35760405162461bcd60e51b815260206004820152602560248201527f416d6f756e742063616e6e6f74206265206c657373207468616e20302e31206560448201526403a3432b9160dd1b60648201526084016102a9565b33600081815260086020908152604080832085905584835260078252822080546001810182559083529082200180546001600160a01b031916909217909155600380549161041083610777565b90915550506002805490600061042583610777565b91905055506004546003541061043f5761043d610590565b505b50565b6000821161049e5760405162461bcd60e51b815260206004820152602360248201527f4d696e696d756d20626574206d7573742062652067726561746572207468616e60448201526210181760e91b60648201526084016102a9565b6000811180156104af575060648111155b6105115760405162461bcd60e51b815260206004820152602d60248201527f4d6178696d756d20616d6f756e74206f6420626574206d75737420626520677260448201526c32b0ba32b9103a3430b710181760991b60648201526084016102a9565b600080546001600160a01b03191633179055600191909155600455565b6007602052816000526040600020818154811061054a57600080fd5b6000918252602090912001546001600160a01b03169150829050565b6006818154811061057657600080fd5b6000918252602090912001546001600160a01b0316905081565b600080444260066040516020016105a993929190610792565b60408051601f19818403018152919052805160209091012090506105ce600a826107f8565b6105d990600161080c565b6005556105e46105e8565b5090565b60045460035410156106355760405162461bcd60e51b81526020600482015260166024820152752132ba3a34b733903430b9903737ba1032b73232b21760511b60448201526064016102a9565b6005546000908152600760205260408120546002546106549190610824565b905060005b6005546000908152600760205260409020548110156106e857600554600090815260076020526040902080548290811061069557610695610838565b60009182526020822001546040516001600160a01b039091169184156108fc02918591818181858888f193505050501580156106d5573d6000803e3d6000fd5b50806106e081610777565b915050610659565b505060006002819055600355565b60006020828403121561070857600080fd5b81356001600160a01b038116811461071f57600080fd5b9392505050565b60006020828403121561073857600080fd5b5035919050565b6000806040838503121561075257600080fd5b50508035926020909101359150565b634e487b7160e01b600052601160045260246000fd5b600060001982141561078b5761078b610761565b5060010190565b838152600060208481840152604083018454856000528260002060005b828110156107d45781546001600160a01b0316845292840192600191820191016107af565b509198975050505050505050565b634e487b7160e01b600052601260045260246000fd5b600082610807576108076107e2565b500690565b6000821982111561081f5761081f610761565b500190565b600082610833576108336107e2565b500490565b634e487b7160e01b600052603260045260246000fdfea2646970667358221220a72c2847c0361ead646bd64e3643b4259d74851e653ce9f7393fc47c3f18456c64736f6c634300080b0033",
  "immutableReferences": {},
  "source": "// SPDX-License-Identifier: MIT\r\npragma solidity >=0.4.22 <0.9.0;\r\n\r\ncontract Casino {\r\n    address payable owner;\r\n\r\n    //Minimum bet a user has to make to partipate in the game\r\n    uint public minimumBet = 0.1 ether;\r\n\r\n    //Total amount of ether bet for this current game\r\n    uint public totalBet;\r\n\r\n    //total number bets made by users\r\n    uint public numberOfBets;\r\n\r\n    //Maximum amount of bets that can be made for each game\r\n    uint public maxAmountOfBets = 10;\r\n\r\n    //Betting limit to avoid excess gas consumption\r\n    uint public constant BETS_LIMIT = 100;\r\n\r\n    //Winning number\r\n    uint public winningNumber;\r\n\r\n    address[] public  players;\r\n\r\n\r\n    //Each number has an array of players betting on it. Associate each number with a bunch of players.\r\n    mapping(uint => address[]) public numberBetPlayers;\r\n\r\n    //The number that each player has bet on\r\n    mapping(address => uint) public playerBetsNumber;\r\n\r\n\r\n    modifier onEndGame(){\r\n        require(numberOfBets >= maxAmountOfBets, \"Betting has not ended.\" );\r\n        _;\r\n    }\r\n\r\n    function InititateCasino(uint _minimumBet, uint _maximumAmountOfBets) public{\r\n        \r\n\r\n        require(_minimumBet > 0, \"Minimum bet must be greater than 0.\");\r\n        require(_maximumAmountOfBets > 0 && _maximumAmountOfBets <= BETS_LIMIT, \"Maximum amount od bet must be greater than 0.\");\r\n        owner = payable(msg.sender);\r\n        minimumBet = _minimumBet;\r\n        maxAmountOfBets = _maximumAmountOfBets;\r\n\r\n\r\n    }\r\n\r\n\r\n    // Checks if a player is in the current game\r\n    function checkIfPlayerExists(address player) public view returns (bool){\r\n        if(playerBetsNumber[player] > 0) {\r\n            return true;\r\n        }\r\n\r\n        return false;\r\n    }\r\n\r\n    function bet(uint numberToBet) public payable{\r\n        require(numberOfBets < maxAmountOfBets, \"Maximum number of bets reached.\");\r\n\r\n        require(!checkIfPlayerExists(msg.sender), \"User exists.\");\r\n\r\n\r\n        require(numberToBet >= 1 && numberToBet <=10, \"number to bet must be between 1 - 10.\");\r\n\r\n        require(msg.value >= minimumBet, \"Amount cannot be less than 0.1 ether \");\r\n\r\n\r\n        playerBetsNumber[msg.sender] = numberToBet;\r\n\r\n        //Add the user address to the list of punters for a particular number;\r\n        numberBetPlayers[numberToBet].push(msg.sender);\r\n        //players.push(msg.sender);\r\n\r\n        numberOfBets ++;\r\n        totalBet ++;\r\n\r\n        if(numberOfBets >= maxAmountOfBets){\r\n           GenerateRandomNumber();\r\n        }\r\n    }\r\n\r\n    function GenerateRandomNumber () private  returns(uint){\r\n        uint random_number = uint(keccak256(abi.encodePacked(block.difficulty, block.timestamp, players)));\r\n\r\n        winningNumber = random_number % 10 + 1;\r\n\r\n        distributePrizes();\r\n    }\r\n\r\n\r\n// Send Ether to winners and reset the game.\r\nfunction distributePrizes() private onEndGame {\r\n    uint winnerEtherAmount = totalBet / numberBetPlayers[winningNumber].length;\r\n\r\n    //numberBetPlayers[winningNumber] pulls out the number and voters attached\r\n\r\n    //Loop through the winners and send ether to them\r\n\r\n    for(uint i= 0; i<numberBetPlayers[winningNumber].length; i++){\r\n        \r\n        payable(numberBetPlayers[winningNumber][i]).transfer(winnerEtherAmount);\r\n    }\r\n\r\n\r\n    // for(uint i= 1; i <= 10; i++){\r\n    //     numberBetPlayers[i].length = 0;\r\n    // }\r\n\r\n    totalBet =0;\r\n    numberOfBets =0;\r\n}\r\n    \r\n\r\n\r\n}\r\n\r\n",
  "sourcePath": "D:\\HP ENVY 15\\MY PROJECT\\WEB\\SOLIDITY\\casino-contract\\contracts\\Casino.sol",
  "compiler": {
    "name": "solc",
    "version": "0.8.11+commit.d7f03943.Emscripten.clang"
  },
  "schemaVersion": "3.4.4",
  "updatedAt": "2022-02-26T11:51:05.902Z",
  "networkType": "ethereum",
  "devdoc": {
    "kind": "dev",
    "methods": {},
    "version": 1
  },
  "userdoc": {
    "kind": "user",
    "methods": {},
    "version": 1
  }
}